:020000040800F2
:10000000000002208D020008DD020008DD02000869
:10001000DD020008DD020008DD020008000000002B
:10002000000000000000000000000000DD020008E9
:10003000DD02000800000000DD020008DD0200080B
:10004000DD020008DD020008DD020008DD02000814
:10005000DD020008DD020008DD020008DD02000804
:10006000DD020008DD020008DD020008DD020008F4
:10007000DD020008DD020008DD020008DD020008E4
:10008000DD020008DD020008DD020008DD020008D4
:10009000DD020008DD020008DD020008DD020008C4
:1000A000DD020008DD020008DD020008DD020008B4
:1000B000DD020008DD020008DD020008DD020008A4
:1000C000DD020008DD020008DD020008DD02000894
:1000D000DD020008DD020008DD020008DD02000884
:1000E000DD020008DD020008DD020008DD02000874
:1000F000DD020008DD020008DD020008DD02000864
:10010000DD020008DD020008DD020008DD02000853
:10011000DD020008DD020008DD020008DD02000843
:10012000DD020008DD020008DD020008DD02000833
:10013000DD020008DD020008DD020008DD02000823
:10014000DD020008DD020008DD020008DD02000813
:10015000DD020008DD020008DD020008DD02000803
:10016000DD020008DD020008DD020008DD020008F3
:10017000DD020008DD020008DD02000800000000CA
:08018000DD020008DD020008A9
:1001880010B5054C237833B9044B13B10448AFF3C9
:1001980000800123237010BD000000200000000033
:1001A8002803000808B5034B1BB103490348AFF304
:1001B800008008BD0000000004000020280300089B
:1001C8002D4AD2F8303843F00803C2F83038A2F587
:1001D8004052D2F8003C23F04071C2F8001C23F0D2
:1001E8007061C2F8001C23F07C51C2F8001C23F097
:1001F8007F43C2F8003C43F08071C2F8001C43F012
:10020800A061C2F8001C43F0A851C2F8001C43F0DA
:10021800AA43C2F8003C1AE00133184A9342FBD9BA
:1002280021F48052164BC3F8142C21F44052C3F821
:10023800142C21F4E042C3F8142C21F47041C3F8C3
:10024800141C002300E001330C4A9342FBD90C4BE9
:10025800D3F8141C41F48052C3F8142C41F44052D2
:10026800C3F8142C41F4E042C3F8142C41F4704153
:10027800C3F8141C0023D0E700300240BF27090050
:1002880000000240DFF834D00D480E490E4A002322
:1002980002E0D458C4500433C4188C42F9D30B4A32
:1002A8000B4C002301E013600432A242FBD3AFF3EE
:1002B800008000F011F8FFF783FF7047000002206C
:1002C8000000002000000020480300080000002073
:1002D8001C000020FEE7000070B50D4D0D4C641B9E
:1002E800A4100026A64209D10B4D0C4C00F018F8BA
:1002F800641BA4100026A64205D170BD55F8043B26
:1003080098470136EEE755F8043B98470136F2E77F
:1003180040030008400300084003000844030008A5
:10032800F8B500BFF8BC08BC9E467047F8B500BFDA
:08033800F8BC08BC9E467047AA
:04034000AD01000803
:040344008901000823
:040000050800028D60
:00000001FF
