:020000040800F2
:1000000000000220C1120008C5050008C70500084D
:10001000C9050008CB050008CD0500080000000058
:10002000000000000000000000000000CF050008F4
:10003000D105000800000000D3050008D505000820
:100040001113000811130008111300081113000800
:1000500011130008111300081113000811130008F0
:1000600011130008111300081113000811130008E0
:1000700011130008111300081113000811130008D0
:1000800011130008111300081113000811130008C0
:1000900011130008111300081113000811130008B0
:1000A00011130008111300081113000811130008A0
:1000B0001113000811130008111300081113000890
:1000C0001113000811130008111300081113000880
:1000D0001113000811130008111300081113000870
:1000E0001113000811130008111300081113000860
:1000F0001113000811130008111300081113000850
:10010000111300081113000811130008111300083F
:10011000111300081113000811130008111300082F
:10012000111300081113000811130008111300081F
:10013000111300081113000811130008111300080F
:1001400011130008111300081113000811130008FF
:1001500011130008111300081113000811130008EF
:1001600011130008111300081113000811130008DF
:1001700011130008111300081113000800000000FB
:0801800011130008111300081F
:1001880053B94AB9002908BF00281CBF4FF0FF31F6
:100198004FF0FF3000F00CB8ADF1080C6DE904CE5B
:1001A80001F0E0F8DDF804E0DDE9022304B070476F
:1001B800704700BF10B5054C237833B9044B13B111
:1001C8000448AFF300800123237010BD0C00002009
:1001D800000000003416000808B5034B1BB10349A2
:1001E8000348AFF3008008BD0000000010000020A5
:1001F800341600082DE9F04F8DB0002407940894B8
:1002080009940A940B940194784B1A6B42F01002EB
:100218001A631A6B02F010020192019A02941A6B87
:1002280042F004021A631A6B02F004020292029A64
:1002380003941A6B42F080021A631A6B02F0800270
:100248000392039A04941A6B42F001021A631A6B20
:1002580002F001020492049A05941A6B42F0020219
:100268001A631A6B02F002020592059A06941A6B39
:1002780042F008021A631B6B03F008030693069BFF
:10028800224608215A4800F05CFBDFF86C81012205
:100298001146404600F055FBDFF860A122464FF2B8
:1002A8001001504600F04DFB0825079501260896D9
:1002B80009940A9407A94E4800F046FA079608964A
:1002C80009940A9407A9404600F03EFA07950225CA
:1002D800089509940A944FF0050BCDF82CB007A99E
:1002E800404600F031FA07964FF4901308930994AA
:1002F800404F07A9384600F027FA102307930895BE
:1003080009940A9406230B9307A9384600F01CFAAF
:10031800E0230793089509940A94CDF82CB007A90F
:10032800384600F011FA0423079308940994DFF87B
:10033800D09007A9484600F007FA4FF48063079366
:10034800089509940A94CDF82CB007A9484600F0FE
:10035800FBF94FF210030793089609940A9407A92A
:10036800504600F0F1F94FF4A45307930895099407
:100378000A9406230B9307A9404600F0E5F94FF4C9
:10038800007307930894099407A9384600F0DCF92C
:100398004FF4E0530793089509940A940A230B93A2
:1003A80007A9384600F0D0F9202307930894099448
:1003B80007A9504600F0C8F94FF4107307931223A9
:1003C800089309960A9404230B9307A9484600F05A
:1003D800BBF907954FF490130893099407A90448AB
:1003E80000F0B2F90DB0BDE8F08F00BF0038024050
:1003F800001002400000024000080240000C0240C9
:100408000004024072B6FEE700B587B000230293ED
:100418000393049305930093019314484FF080428B
:100428000260436083604FF0FF32C2604FF4007295
:100438000261836100F042FE90B94FF48053029349
:1004480002A90A4800F073FE60B9002300930193E3
:100458006946064800F0EAFE30B907B05DF804FBCB
:10046800FFF7D0FFFFF7CEFFFFF7CCFF28000020F3
:1004780000B595B03022002108A800F06BFF0023DA
:10048800039304930593069307930193214A116CF0
:1004980041F080511164126C02F080520192019A6D
:1004A80002931D4B1A6842F480421A601B6803F4D9
:1004B80080430293029B012308934FF480330993EE
:1004C80002230E934FF480020F92082210924FF4E9
:1004D800A872119212930723139308A800F040FA08
:1004E80098B90F23039302230493002305934FF431
:1004F800A05306934FF480530793052103A800F0F7
:1005080099FC20B915B05DF804FBFFF77BFFFFF7F6
:1005180079FF00BF003802400070004008B500F0C5
:1005280089F8FFF7A5FFFFF765FEFFF76DFF0121CB
:10053800054800F0FFF90128F9D14FF4704103484C
:1005480000F005FAF3E700BF00000240000C02408B
:1005580000B583B0002100910C4B5A6C42F48042E4
:100568005A645A6C02F480420092009A01911A6C03
:1005780042F080521A641B6C03F080530193019B74
:10058800072000F083F803B05DF804FB0038024050
:100598000368B3F1804F00D0704782B00023019305
:1005A800054B1A6C42F001021A641B6C03F001033C
:1005B8000193019B02B0704700380240FEE7FEE756
:1005C800FEE7FEE7FEE770477047704708B500F0A2
:1005D8004BF808BD034AD2F8883043F47003C2F8D8
:1005E8008830704700ED00E010B504460E4B1A78CD
:1005F8004FF47A73B3FBF2F30C4A1068B0FBF3F0D4
:1006080000F08EF868B90F2C01D901200AE0002209
:1006180021464FF0FF3000F04BF8054B1C600020DE
:1006280000E0012010BD00BF0400002000000020F1
:100638000800002008B50B4B1A6842F400721A60D3
:100648001A6842F480621A601A6842F480721A606A
:10065800032000F01BF80020FFF7C6FFFFF778FF24
:10066800002008BD003C0240034A1168034B1B7878
:100678000B441360704700BF700000200400002086
:10068800014B1868704700BF70000020074AD36804
:1006980023F4E0631B041B0C000200F4E060034336
:1006A80043F0BF6343F40033D360704700ED00E0CC
:1006B80000B5194BDB68C3F30223C3F1070CBCF187
:1006C800040F28BF4FF0040C03F1040EBEF1060F0F
:1006D80018D9033B4FF0FF3E0EFA0CFC21EA0C013F
:1006E80099400EFA03FE22EA0E020A4300280BDBA9
:1006F8001201D2B200F1604000F5614080F8002399
:100708005DF804FB0023E5E700F00F001201D2B208
:10071800024B1A54F4E700BF00ED00E014ED00E0CE
:100728000138B0F1807F0BD24FF0E0235861054AC1
:10073800F02182F823100020986107221A6170477F
:100748000120704700ED00E000230F2B00F2E98044
:1007580070B582B065E085684FEA430E032404FA59
:100768000EF425EA0405CC6804FA0EF42C438460E0
:10077800446824EA02044A68C2F300129A402243F9
:1007880042605CE0DC08083450F8242003F00705D8
:10079800AD004FF00F0E0EFA05FE22EA0E0E0A69A2
:1007A800AA4042EA0E0240F824205CE0072200E05A
:1007B800002202FA0EF22A4302345A4D45F8242048
:1007C800594A94686FEA0C0224EA0C054E6816F43C
:1007D800801F01D04CEA0405534CA560E46802EA86
:1007E80004054E6816F4001F01D04CEA04054E4C6F
:1007F800E560646802EA04054E6816F4003F01D01B
:100808004CEA0405484C6560246822404D6815F49C
:10081800803F01D04CEA0402434C226001330F2B85
:100828007DD801229A400C6804EA020C32EA0404DA
:10083800F4D14C6804F00304013C012C8BD94A68BC
:1008480002F00302032A09D0C4685D000322AA400B
:1008580024EA02048A68AA402243C2604A6802F075
:100868000302022A8ED004684FEA430E032202FADA
:100878000EF224EA02044A6802F0030202FA0EF2B7
:10088800224302604A6812F4403FC7D00022019216
:10089800264A546C44F480445464526C02F48042F6
:1008A8000192019A9C08A51C1E4A52F8255003F093
:1008B800030E4FEA8E0E0F2202FA0EF225EA020507
:1008C8001B4A90423FF474AF02F5806290421AD0FE
:1008D80002F58062904218D002F58062904216D0EC
:1008E80002F58062904214D002F58062904212D0E4
:1008F80002F58062904210D002F5806290423FF487
:1009080055AF082255E7012253E7022251E7032297
:100918004FE704224DE705224BE7062249E702B0DC
:1009280070BD704700380140003C0140003802406B
:10093800000002400369194201D0012070470020DD
:1009480070470AB181617047090481617047436942
:1009580001EA030221EA030141EA02418161704789
:10096800002800F0E08170B582B00446036813F0F7
:10097800010F3BD09F4B9B6803F00C03042B2CD03A
:100988009C4B9B6803F00C03082B21D06368B3F5DC
:10099800803F4FD0B3F5A02F52D0964B1A6822F45F
:1009A80080321A601A6822F480221A606368002B69
:1009B80050D0FFF765FE05468E4B1B6813F4003FC9
:1009C80014D1FFF75DFE401B6428F5D90320B1E17F
:1009D800884B5B6813F4800FD8D0864B1B6813F4E0
:1009E800003F03D06368002B00F09F81236813F059
:1009F800020F54D07F4B9B6813F00C0F3ED07D4BF9
:100A08009B6803F00C03082B33D0E368002B68D0F5
:100A1800794B01221A60FFF733FE0546754B1B68B8
:100A280013F0020F54D1FFF72BFE401B0228F5D913
:100A380003207FE16F4A136843F480331360B5E7FE
:100A48006C4B1A6842F480221A601A6842F48032A9
:100A58001A60ABE7FFF714FE0546664B1B6813F4F4
:100A6800003FC3D0FFF70CFE401B6428F5D90320D4
:100A780060E1604B5B6813F4800FC6D15D4B1B6867
:100A880013F0020F03D0E368012B40F05081594A5C
:100A9800136823F0F803216943EAC103136023684C
:100AA80013F0080F42D063696BB3534B0122C3F8AC
:100AB800802EFFF7E5FD05464E4B5B6F13F0020FE6
:100AC80034D1FFF7DDFD401B0228F5D9032031E1C1
:100AD800484A136823F0F803216943EAC103136005
:100AE800DDE7454B00221A60FFF7CAFD0546414B7A
:100AF8001B6813F0020FD2D0FFF7C2FD401B02287B
:100B0800F5D9032016E13C4B0022C3F8802EFFF7ED
:100B1800B7FD0546374B5B6F13F0020F06D0FFF7A2
:100B2800AFFD401B0228F5D9032003E1236813F029
:100B3800040F77D02F4B1B6C13F0805F33D1002349
:100B480001932C4B1A6C42F080521A641B6C03F010
:100B580080530193019B0125284B1B6813F4807F68
:100B680023D0A368012B34D0052B38D0214B1A6F22
:100B780022F001021A671A6F22F004021A67A368AA
:100B8800002B3DD0FFF77CFD06461A4B1B6F13F078
:100B9800020F46D1FFF774FD801B41F2883398425B
:100BA800F3D90320C6E00025D6E7144A136843F4B6
:100BB80080731360FFF764FD0646104B1B6813F43F
:100BC800807FCED1FFF75CFD801B0228F5D903207A
:100BD800B0E0084A136F43F001031367CFE7054BF2
:100BE8001A6F42F004021A671A6F42F001021A677C
:100BF800C5E700BF003802400000474200700040CF
:100C0800FFF73EFD0646524B1B6F13F0020F08D04C
:100C1800FFF736FD801B41F288339842F3D9032051
:100C280088E0EDB9A369002B00F08380484A9268F8
:100C380002F00C02082A51D0022B17D0454B002293
:100C48001A66FFF71DFD0446414B1B6813F0007F31
:100C580042D0FFF715FD001B0228F5D9032069E0F3
:100C68003B4A136C23F080531364DBE7394B0022B3
:100C78001A66FFF705FD0546354B1B6813F0007F24
:100C880006D0FFF7FDFC401B0228F5D9032051E0F0
:100C9800E369226A1343626A43EA8213A26A52082A
:100CA800013A43EA0243E26A43EA0263284A53608C
:100CB800284B01221A66FFF7E3FC0446244B1B6805
:100CC80013F0007F06D1FFF7DBFC001B0228F5D9E3
:100CD80003202FE000202DE000202BE0012B2BD05B
:100CE8001B4B5B6803F48001E269914226D103F053
:100CF8003F02216A8A4223D1616A47F6C0721A40CC
:100D0800B2EB811F1ED103F44031A26A5208013AA6
:100D1800B1EB024F18D103F07063E26AB3EB026FD4
:100D280014D1002006E001207047012002E00120D4
:100D380000E0002002B070BD0120FBE70120F9E7C8
:100D48000120F7E70120F5E70120F3E70120F1E7AB
:100D5800003802400000474208B5334B9B6803F057
:100D68000C03042B5BD0082B5BD12F4B5A6802F085
:100D78003F025B6813F4800F2CD02B4B5868C0F3EC
:100D880088104FEA401CBCEB000C6EEB0E0E4FEACD
:100D98008E1343EA9C634FEA8C11B1EB0C0163EBB1
:100DA8000E03DB0043EA5173C90011EB000C43F159
:100DB8000003590200234FEA4C2041EADC51FFF7B7
:100DC800DFF9194B5B68C3F3014301335B00B0FBE8
:100DD800F3F027E0144B5868C0F388104FEA401C22
:100DE800BCEB000C6EEB0E0E4FEA8E1343EA9C63CD
:100DF8004FEA8C11B1EB0C0163EB0E03DB0043EA05
:100E08005173C90011EB000C43F100039902002350
:100E18004FEA8C2041EA9C51FFF7B2F9D1E7034829
:100E280000E0034808BD00BF0038024000127A0005
:100E38000024F400002800F09B8070B50D4604469D
:100E48004F4B1B6803F007038B4208D2CBB24C4AC6
:100E58001370136803F007038B4240F08B802368FC
:100E680013F0020F17D013F0040F04D0454A93680B
:100E780043F4E0539360236813F0080F04D0414A09
:100E8800936843F4604393603E4A936823F0F00309
:100E9800A1680B439360236813F0010F32D0636895
:100EA800012B21D09A1E012A25D9364A126812F040
:100EB800020F61D033498A6822F0030213438B6022
:100EC800FFF7DEFB06462F4B9B6803F00C036268B6
:100ED800B3EB820F16D0FFF7D3FB801B41F28833A8
:100EE8009842F0D9032042E0264A126812F4003FE3
:100EF800E0D101203BE0234A126812F0007FD9D1EB
:100F0800012034E01E4B1B6803F00703AB4207D9EE
:100F1800EAB21B4B1A701B6803F00703AB422DD1D2
:100F2800236813F0040F06D0164A936823F4E0539D
:100F3800E1680B439360236813F0080F07D0114A48
:100F4800936823F46043216943EAC1039360FFF780
:100F580003FF0C4B9B68C3F303130B4AD35CD840C5
:100F68000A4B18600A4B1868FFF73EFB002070BD5B
:100F7800012070470120FAE70120F8E70120F6E791
:100F8800003C0240003802404C16000800000020D7
:100F98000800002010B4036A046A24F00104046203
:100FA800846924F0F00C4CEA021223F00A030B4384
:100FB800826103625DF8044B704710B4036A23F042
:100FC800100303628469036A24F4704C4CEA023209
:100FD80023F0A00343EA0113826103625DF8044B26
:100FE8007047836823F070030B4343F00703836063
:100FF800704700000368304A904212D0B0F1804F29
:101008000FD0A2F57C4290420BD002F5806290424C
:1010180007D002F58062904203D002F578429042F0
:1010280003D123F070034A681343234A90422AD01D
:10103800B0F1804F27D0A2F57C42904223D002F530
:10104800806290421FD002F5806290421BD002F568
:101058007842904217D002F57052904213D002F5B0
:10106800806290420FD002F5806290420BD0A2F5C8
:101078009832904207D002F58062904203D002F580
:101088008062904203D123F44073CA68134323F06B
:1010980080034A69134303608B68C3620B688362E9
:1010A800054B984203D003F58063984201D10B6940
:1010B80003630123436170470000014040B310B54A
:1010C800044690F83D30F3B1022384F83D302146C0
:1010D80051F8040BFFF78EFF012384F8463084F89B
:1010E8003E3084F83F3084F8403084F8413084F84A
:1010F800423084F8433084F8443084F8453084F82A
:101108003D30002010BD80F83C30FFF741FADBE7A6
:101118000120704710B4846824F47F4C42EA03220B
:101128000A4342EA0C0282605DF8044B704790F86B
:101138003C30012B78D010B50446012380F83C30B0
:10114800022380F83D300268936823F47F4323F03C
:10115800770393600B68602B4CD029D8402B54D070
:101168000CD9502B22D1CA6849680068FFF712FFD2
:1011780050212068FFF735FF002005E0202B0DD017
:1011880009D9302B0AD00120012384F83D300023EF
:1011980084F83C3010BD0BB1102B05D119462068DE
:1011A800FFF71FFF0020EFE70120EDE70120EBE745
:1011B800B3F5805F34D0B3F5005F0CD1CB684A68D3
:1011C80089680068FFF7A6FF2268936843F48043A4
:1011D80093600020D8E7702B24D1CB684A688968CF
:1011E8000068FFF797FF2268936843F077039360DE
:1011F8000020C9E7CA6849680068FFF7DEFE602179
:101208002068FFF7EEFE0020BEE7CA68496800685C
:10121800FFF7C0FE40212068FFF7E3FE0020B3E798
:101228000020B1E70120AFE70220704790F83C208A
:10123800012A3DD010B40346012280F83C20022246
:1012480080F83D2002685068946820F0700C0868A7
:1012580040EA0C0050601A68164882421AD0B2F16F
:10126800804F17D0A0F57C40824213D000F58060F3
:1012780082420FD000F5806082420BD000F57840A2
:10128800824207D000F57050824203D0A0F5943016
:10129800824204D124F080044968214391600122EC
:1012A80083F83D20002083F83C005DF8044B70472C
:1012B8000220704700000140DFF834D00D480E4985
:1012C8000E4A002302E0D458C4500433C4188C4298
:1012D800F9D30B4A0B4C002301E013600432A242FD
:1012E800FBD3FFF777F900F011F8FFF717F970470C
:1012F80000000220000000200C0000206C160008EE
:101308000C00002074000020FEE7000070B50D4DB1
:101318000D4C641BA4100026A64209D10B4D0C4CA1
:1013280000F084F9641BA4100026A64205D170BD04
:1013380055F8043B98470136EEE755F8043B9847C3
:101348000136F2E7641600086416000864160008FF
:101358006816000802440346934200D1704703F818
:10136800011BF9E72DE9F047089E0D4604460F4694
:10137800002B4AD18A42944665D9B2FA82F343B126
:1013880002FA03FCC3F120029F4020FA02F217433D
:101398009C404FEA1C4E1FFA8CF5B7FBFEF1220C5D
:1013A8000EFB117742EA074201FB05F090420AD989
:1013B8001CEB020201F1FF3780F01C81904240F2E1
:1013C800198102396244121AA4B2B2FBFEF00EFB74
:1013D800102244EA024400FB05F5A5420AD91CEB99
:1013E800040400F1FF3280F00781A54240F2048135
:1013F8006444023840EA0140641B00211EB1DC400D
:101408000023C6E90043BDE8F0878B4208D9002EC7
:1014180000F0ED800021C6E900050846BDE8F08728
:10142800B3FA83F1002949D1AB4202D3824200F2D8
:10143800F880841A65EB030201201746002EE2D0DB
:10144800C6E90047DFE702B9FFDEB2FA82F3002BF4
:1014580040F090808A1A4FEA1C471FFA8CFE01213F
:10146800B2FBF7F507FB1520220C42EA00420EFBFF
:1014780005F0904208D91CEB020205F1FF3802D2B0
:10148800904200F2CB804546121AA4B2B2FBF7F0A4
:1014980007FB102244EA02440EFB00FEA64508D9C9
:1014A8001CEB040400F1FF3202D2A64500F2BB8017
:1014B8001046A4EB0E0440EA05409FE7C1F120075F
:1014C8008B4022FA07FC4CEA030C05FA01F420FAD7
:1014D80007F3FD404FEA1C492343B5FBF9F81FFA0F
:1014E8008CFE09FB18551C0C44EA054408FB0EF554
:1014F800A54202FA01F200FA01F00BD91CEB040430
:1015080008F1FF3A80F08880A54240F28580A8F172
:1015180002086444641B9DB2B4FBF9F309FB13444D
:1015280045EA044403FB0EFEA64508D91CEB040457
:1015380003F1FF356CD2A6456AD9023B644443EAFD
:101548000843A3FB0295A4EB0E04AC42C846AE4682
:1015580056D353D056B1B0EB080264EB0E0404FA2C
:1015680007F7CA40CC401743C6E900741846002163
:10157800BDE8F087C3F1200102FA03FC20FA01F26A
:1015880025FA01F19D402A434FEA1C471FFA8CFEB9
:10159800B1FBF7F007FB1015110C41EA054100FB00
:1015A8000EF58D4204FA03F408D91CEB010100F191
:1015B800FF382FD28D422DD902386144491B92B28F
:1015C800B1FBF7F507FB151142EA014205FB0EF1E5
:1015D800914208D91CEB020205F1FF3816D291425C
:1015E80014D9023D6244521A45EA004138E73146AF
:1015F800304608E73946E6E61046FBE64845A9D2F4
:10160800B9EB020865EB0C0E013BA3E74546EAE798
:101618002B4694E74046D1E7D0467BE7023D62443B
:1016280032E708460AE76444023842E7F8B500BFE3
:10163800F8BC08BC9E467047F8B500BFF8BC08BCAB
:041648009E46704703
:10164C000000000000000000010203040607080966
:08165C0010FDFF7F01000000FA
:04166400E101000898
:04166800BD010008B8
:0C166C000024F400010000001000000049
:04000005080012C11C
:00000001FF
